:020000040800F2
:100000000000022049140008890D0008950D000821
:10001000AB0D0008B30D0008BB0D00080000000088
:10002000000000000000000000000000C30D0008F8
:10003000D10D000800000000DF0D0008ED0D0008E4
:1000400099140008991400089914000899140008DC
:1000500099140008991400089914000899140008CC
:10006000991400089914000899140008F90D000863
:100070000D0E00089914000899140008991400083E
:100080009914000899140008210E0008991400081A
:10009000991400089914000899140008991400088C
:1000A000991400089914000899140008991400087C
:1000B000991400083D0E00089914000899140008CE
:1000C000991400089914000899140008991400085C
:1000D000991400089914000899140008991400084C
:1000E000991400089914000899140008991400083C
:1000F000991400089914000899140008991400082C
:10010000991400089914000899140008991400081B
:10011000510E000899140008991400089914000859
:1001200099140008991400089914000899140008FB
:1001300099140008991400089914000899140008EB
:1001400099140008991400089914000899140008DB
:1001500099140008991400089914000899140008CB
:1001600099140008991400089914000899140008BB
:1001700099140008991400089914000899140008AB
:10018000991400089914000899140008991400089B
:100190009914000800000000991400089914000840
:1001A000991400089914000899140008991400087B
:1001B000991400089914000899140008991400086B
:1001C000991400089914000899140008991400085B
:0801D0009914000899140008BD
:1001D80010B5054C237833B9044B13B10448AFF379
:1001E80000800123237010BD7C0200200000000065
:1001F800A4FC000808B5034B1BB103490348AFF33F
:10020800008008BD0000000080020020A4FC000857
:1002180053B94AB9002908BF00281CBF4FF0FF3165
:100228004FF0FF3000F088B9ADF1080C6DE904CE4D
:1002380000F006F8DDF804E0DDE9022304B07047B9
:100248002DE9F047089D0F4604468C46002B48D1FF
:100258008A42164661D9B2FA82F34BB1C3F1200241
:1002680001FA03FC20FA02F29E4042EA0C0C9C4080
:100278004FEA164EB7B2BCFBFEF1220C0EFB11CCB6
:1002880042EA0C4201FB07F0904209D9B21801F189
:10029800FF3C80F0EE80904240F2EB80023932441D
:1002A800121AA4B2B2FBFEF00EFB102244EA02447A
:1002B80000FB07F7A74209D9341900F1FF3280F093
:1002C800DA80A74240F2D7803444023840EA01403D
:1002D800E41B00211DB1DC400023C5E90043BDE853
:1002E800F0878B4206D90DB1C5E900010021084607
:1002F800BDE8F087B3FA83F1002948D1BB4202D3A5
:10030800824200F20781841A67EB030201209446B7
:10031800002DE4D0C5E9004CE1E7002A00F0928006
:10032800B2FA82F3002B40F0A8808A1A4FEA164EE0
:100338001FFA86FC0121200CB2FBFEF70EFB1722E8
:1003480040EA02420CFB07F0904207D9B21807F1C5
:10035800FF3802D2904200F2E2804746121AA4B255
:10036800B2FBFEF00EFB102244EA02440CFB00FC38
:10037800A44507D9341900F1FF3202D2A44500F28E
:10038800CB801046A4EB0C0440EA0740A2E7C1F179
:1003980020068B4022FA06FC4CEA030C07FA01F40B
:1003A80020FA06F3F7404FEA1C49234300FA01F804
:1003B8001FFA8CFEB7FBF9F01C0C09FB107744EA16
:1003C800074400FB0EF7A74202FA01F20AD91CEB18
:1003D800040400F1FF3A80F09B80A74240F2988025
:1003E80002386444E41B9FB2B4FBF9F309FB1344DD
:1003F80047EA044403FB0EFEA64509D91CEB040496
:1004080003F1FF3780F08280A6457FD9023B644420
:1004180043EA0040A4EB0E04A0FB02E7BC4273468B
:10042800B94663D360D05DB1B8EB030264EB09044D
:1004380004FA06F622FA01F31E43CC40C5E900642B
:1004480000214CE76208480842EAC1710B0C43EAF4
:1004580000438AB242EA0342B3FBF6F1E407B4462A
:100468003746B6461F23B0FBF6F0D21B41EA0041DF
:1004780061E7614614E7104628E7C3F1200120FA36
:1004880001F29E4027FA01F19F403A434FEA164E87
:100498001FFA86FCB1FBFEF70EFB1710110C41EAA0
:1004A800004107FB0CF8884504FA03F43AD971189F
:1004B80007F1FF3001D288451FD8A1EB0801B1FB35
:1004C800FEF808FB0CF70EFB181192B242EA014243
:1004D800BA422FD2B21808F1FF31C6D2BA42C4D2FA
:1004E800A8F102013244C0E7F0459CD2BEEB0203FA
:1004F80067EB0C070138B94695E7A6EB08084144B5
:10050800B81EB1FBFEF808FB0CF7DCE73B467FE7BB
:10051800504667E70846FBE63444023832E7023FB4
:1005280032441BE7A1EB08013846B1FBFEF808FB93
:100538000CF7C8E7414698E7704700BF80B500AFA1
:1005480009F030F800F016F800F03EFB00F00AFB66
:1005580000F05CF800F0DEF800F086F900F0B6FA7A
:1005680000F03CFA05F0EEFF642009F08BF805F086
:10057800F7FFFCE780B594B000AF07F11803382205
:10058800002118460FF0F4FA3B1D00221A605A6049
:100598009A60DA601A6100200AF0E2FC0223BB616B
:1005A8004FF480737B624023BB6202237B63022388
:1005B800BB630423FB6355233B6402237B64022350
:1005C800BB640223FB6407F11803184609F07CF8A2
:1005D8000346002B01D000F049FB0F237B60032367
:1005E800BB600023FB6000233B6100237B613B1D54
:1005F8000421184609F07AFB0346002B01D000F0CD
:1006080035FB00BF5037BD4680BD000080B592B0B5
:1006180000AF07F13C0300221A605A609A603B461B
:100628003C22002118460FF0A3FA384B4FF0A042A5
:100638001A60364B4FF440325A60344B00229A60AD
:10064800324B0022DA60314B00221A612F4B002214
:100658005A612E4B04229A612C4B00221A772B4B9D
:1006680000225A77294B01221A62284B002283F86C
:100678002420264B002283F83820244B0022DA63FA
:10068800224B002283F84020204806F039FA03461E
:10069800002B01D000F0EAFA0023FB6307F13C03CA
:1006A80019461A4808F076FE0346002B01D000F0E0
:1006B800DDFA174B3B6009237B600123BB607F2376
:1006C800FB6004233B6100237B6101233B62002321
:1006D80087F82430002387F82530002387F8263050
:1006E8008423BB628023FB62002387F830303B46BB
:1006F8001946064808F022F90346002B01D000F0FD
:10070800B5FA00BF4837BD4680BD00BF980200203B
:100718000002B02580B598B000AF07F14003202251
:10072800002118460FF024FA3B1D3C2200211846F0
:100738000FF01EFA474B484A1A60464B4FF44032B6
:100748005A60444B00229A60424B0022DA60414BC7
:1007580000221A613F4B01225A613E4B04229A61E2
:100768003C4B00221A773B4B00225A77394B022226
:100778001A62384B002283F82420364B4FF4A862C3
:10078800DA62344B4FF480621A63324B012283F8E9
:100798003820304B0022DA632E4B002283F84020A9
:1007A8002C4806F0ADF90346002B01D000F05EFAA4
:1007B8002A4B3B6406237B640323BB647F23FB64CF
:1007C80004233B6500237B6507F140031946214854
:1007D80006F0AEFE0346002B01D000F047FA204B8E
:1007E8003B640C237B6407F140031946194806F063
:1007F8009FFE0346002B01D000F038FA194B7B60AE
:100808000923BB600123FB607F233B6104237B61D9
:100818000023BB6101237B62002387F82830002373
:1008280087F82930002387F82A308423FB62802345
:100838003B63002387F834303B1D1946054808F010
:100848007DF80346002B01D000F010FA00BF603796
:10085800BD4680BD0403002000010050000052473F
:100868000008302E0200300480B598B000AF07F1C0
:10087800540300221A605A609A6007F13803002274
:100888001A605A609A60DA601A615A619A613B1D6F
:100898003422002118460FF06BF94E4B4E4A1A606D
:1008A8004C4B00225A604B4B20229A60494B41F234
:1008B8009A02DA60474B00221A61464B00225A61BD
:1008C800444B00229A6143480AF06BFD0346002B13
:1008D80001D000F0CBF970237B654FF4E003BB65D2
:1008E8000023FB6507F1540319463A480CF02CFB2A
:1008F8000346002B01D000F0B9F96023BB63002345
:10090800FB6300233B6408237B640023BB64002350
:10091800FB6400233B6507F13803002219462D4884
:100928000BF088FB0346002B01D000F09FF907F17C
:1009380038030422194627480BF07CFB0346002B9A
:1009480001D000F093F907F138030822194621482D
:100958000BF070FB0346002B01D000F087F9002351
:100968007B6407F138030C2219461A480BF062FB26
:100978000346002B01D000F079F900237B600023A7
:10098800BB600023FB6080233B6100237B614FF445
:100998000053BB610023FB6100233B6200237B62A1
:1009A8004FF00073BB620023FB6200233B6300230C
:1009B8007B633B1D194607480CF05CFB0346002B84
:1009C80001D000F053F9034800F0EAFB00BF60379C
:1009D800BD4680BDD0030020002C014080B590B0FA
:1009E80000AF07F11C032422002118460FF0C0F8BD
:1009F80007F1100300221A605A609A603B460022F1
:100A08001A605A609A60DA602E4B2F4A1A602D4B92
:100A180000225A602B4B00229A602A4B4FF6FF7235
:100A2800DA60284B00221A61264B00229A61254879
:100A38000AF0BCFE0346002B01D000F017F903238F
:100A4800FB6100233B6201237B620023BB6200231E
:100A5800FB6200233B6301237B630023BB6300230A
:100A6800FB6307F11C03194616480BF047F80346C9
:100A7800002B01D000F0FAF800233B610023BB6192
:100A880007F1100319460F480CF05EFA0346002BD5
:100A980001D000F0EBF800233B6001237B600023CA
:100AA800BB600023FB603B460822194605480BF053
:100AB80024FA0346002B01D000F0D8F800BF4037D5
:100AC800BD4680BD1C0400200004004080B500AF76
:100AD800224B234A1A60214B4FF461225A601F4B64
:100AE80000229A601D4B0022DA601C4B00221A611A
:100AF8001A4B0C225A61194B00229A61174B00229B
:100B0800DA61164B00221A62144B00225A62134B08
:100B180000229A6211480CF0ACFB0346002B01D06E
:100B280000F0A4F800210D480DF06BFE0346002BE1
:100B380001D000F09BF8002108480DF0A0FE034604
:100B4800002B01D000F092F804480DF021FE034676
:100B5800002B01D000F08AF800BF80BD6804002097
:100B6800004C004080B582B000AF164B9B6C154A14
:100B780043F004039364134B9B6C03F004037B6002
:100B88007B68104B9B6C0F4A43F0010393640D4B39
:100B98009B6C03F001033B603B68002200210B20A3
:100BA8000AF0AFFB0B200AF0C6FB002200210C2044
:100BB8000AF0A7FB0C200AF0BEFB00BF0837BD46B1
:100BC80080BD00BF0010024080B58AB000AF254B41
:100BD800DB6C244A43F02003D364224BDB6C03F024
:100BE80020033B613B691F4BDB6C1E4A43F0040347
:100BF800D3641C4BDB6C03F00403FB60FB68194BEC
:100C0800DB6C184A43F00103D364164BDB6C03F02A
:100C18000103BB60BB68134BDB6C124A43F0020351
:100C2800D364104BDB6C03F002037B607B6807F135
:100C3800140300221A605A609A60DA601A614FF44D
:100C480000737B610123BB610023FB6103233B62CB
:100C580007F114031946044809F0CEFC00BF2837F1
:100C6800BD4680BD001002400004004880B400AFBB
:100C780072B600BF00BFFDE780B483B000AF7860F4
:100C880039602B4A3B6813607B682A4A13607B688B
:100C9800002B1FD07B681B68274A13607B685B6842
:100CA800264A13607B689B68254A13607B68DB686B
:100CB800244A13607B681B69234A13607B685B695D
:100CC800224A13607B689B69214A13607B68DB6951
:100CD800204A1360204B9B6A204A13601E4BDB6A34
:100CE8001F4A13601C4B1B6B1E4A13601A4BDB6BAD
:100CF8001D4A1360184B5B6B1C4A1360164B9B6BA9
:100D08001B4A1360144B5B681A4A1360124B5B6AE8
:100D1800194A1360194B5B6C184A23F40043536457
:100D2800164B1B68154A23F00103136000BFFDE74B
:100D38007C0500208005002084050020880500200F
:100D48008C050020900500209405002098050020BF
:100D58009C050020A005002000ED00E05C050020B7
:100D68006005002064050020680500206C0500204F
:100D7800700500207405002078050020002C014033
:100D880080B500AF09F088F900BF80BD1EF0040FE0
:100D98000CBFEFF30880EFF309807146FFF76CBFD3
:100DA80000BF80B400AF00BFFDE780B400AF00BF54
:100DB800FDE780B400AF00BFFDE780B400AF00BF1F
:100DC800BD465DF8047B704780B400AF00BFBD46E8
:100DD8005DF8047B704780B400AF00BFBD465DF886
:100DE800047B704780B500AF08F02EFC00BF80BDC3
:100DF80080B500AF024809F064FF00BF80BD00BFA6
:100E08007003002080B500AF024809F05AFF00BF08
:100E180080BD00BFFC04002080B500AF034806F089
:100E2800FFF8034806F0FCF800BF80BD98020020D8
:100E38000403002080B500AF02480AF00FFF00BF8E
:100E480080BD00BF1C04002080B500AF02480CF034
:100E5800E1FA00BF80BD00BF6804002080B582B001
:100E680000AF0F4B1B6E0E4A43F0010313660C4B89
:100E78001B6E03F001037B607B68094B9B6D084A7E
:100E880043F080539365064B9B6D03F080533B60A2
:100E98003B680AF009F900BF0837BD4680BD00BFAE
:100EA8000010024080B5A2B000AF786007F174036B
:100EB80000221A605A609A60DA601A6107F120030A
:100EC8005422002118460EF053FE7B681B68B3F1CC
:100ED800A04F45D14FF400433B624FF000537B666F
:100EE80007F12003184609F039F90346002B01D011
:100EF800FFF7BCFE644B1B680133634A1360624B07
:100F08001B68012B0BD1614BDB6C604A43F4005327
:100F1800D3645E4BDB6C03F40053FB61FB695B4BF2
:100F2800DB6C5A4A43F00403D364584BDB6C03F080
:100F38000403BB61BB6908237B670323BB670023EA
:100F4800FB6707F174031946514809F055FB002265
:100F5800002112200AF0D5F912200AF0ECF98EE0EF
:100F68007B681B684B4A934240F089804FF40043EA
:100F78003B624FF000537B6607F12003184609F0E7
:100F8800EDF80346002B01D0FFF770FE3E4B1B68BF
:100F980001333D4A13603C4B1B68012B0BD13B4B83
:100FA800DB6C3A4A43F40053D364384BDB6C03F4EC
:100FB80000537B617B69354BDB6C344A43F001039A
:100FC800D364324BDB6C03F001033B613B692F4B6D
:100FD800DB6C2E4A43F00403D3642C4BDB6C03F028
:100FE8000403FB60FB6811237B670323BB670023B3
:100FF800FB6707F1740319464FF0904009F0FCFABB
:1010080020237B670323BB670023FB6707F1740377
:1010180019461F4809F0F0FA1F4B204A1A601E4B68
:1010280024225A601C4B00229A601B4B0022DA6073
:10103800194B80221A61184B4FF480725A61164B73
:101048004FF480629A61144B2022DA61124B00221D
:101058001A62114809F052FC0346002B01D0FFF731
:1010680005FE7B680C4A5A650B4A7B68936200222E
:10107800002112200AF045F912200AF05CF900BF9D
:101088008837BD4680BD00BFA4050020001002407F
:1010980000080048000100507003002008000240CA
:1010A80080B485B000AF78607B681B680A4A9342B9
:1010B8000BD10A4B1B6E094A43F400631366074BB6
:1010C8001B6E03F40063FB60FB6800BF1437BD466A
:1010D8005DF8047B704700BF002C014000100240FF
:1010E80080B58AB000AF786007F1140300221A6057
:1010F8005A609A60DA601A617B681B68254A9342D5
:1011080043D1254B9B6D244A43F002039365224B40
:101118009B6D03F002033B613B691F4BDB6C1E4A6E
:1011280043F00403D3641C4BDB6C03F00403FB6043
:10113800FB684FF4E0737B610223BB610023FB6112
:1011480000233B6202237B6207F11403194613480C
:1011580009F052FA002200211D200AF0D2F81D20C1
:101168000AF0E9F87B681B68DA687B681B6822F07C
:101178001F02DA607B681B686FF01F021A611D206E
:101188000AF001F91D200AF0E4F800BF2837BD462F
:1011980080BD00BF00040040001002400008004865
:1011A80080B58AB000AF786007F1140300221A6096
:1011B8005A609A60DA601A617B681B68284A934211
:1011C80049D1284BDB6C274A43F00403D364254BF1
:1011D800DB6C03F004033B613B69224BDB6C214A67
:1011E80043F00203D3641F4BDB6C03F00203FB6084
:1011F800FB6807237B610223BB610023FB6100239B
:101208003B6202237B6207F114031946164809F072
:10121800F3F94FF4C0437B610223BB610023FB61F8
:1012280000233B6206237B6207F1140319460F482B
:1012380009F0E2F94FF400437B610223BB6100230C
:10124800FB6100233B6204237B6207F11403194608
:10125800064809F0D1F900BF2837BD4680BD00BF58
:10126800002C01400010024000080048000400481B
:1012780080B59EB000AF786007F1640300221A6061
:101288005A609A60DA601A6107F11003542200214B
:1012980018460EF06DFC7B681B68374A934267D18D
:1012A80008233B6100233B6207F11003184608F04E
:1012B80055FF0346002B01D0FFF7D8FC2F4B9B6D41
:1012C8002E4A43F4002393652C4B9B6D03F40023B3
:1012D800FB60FB68294BDB6C284A43F00403D364AA
:1012E800264BDB6C03F00403BB60BB684FF4406320
:1012F8007B660223BB660023FB6600233B6705234E
:101308007B6707F1640319461D4809F075F91D4B01
:101318001D4A1A601B4B1F225A601A4B10229A60F2
:10132800184B0022DA60174B80221A61154B0022F5
:101338005A61144B00229A61124B0022DA61114B58
:1013480000221A620F4809F0D9FA0346002B01D08F
:10135800FFF78CFC7B680B4ADA670A4A7B68936262
:1013680000220021342009F0CCFF342009F0E3FFEB
:1013780000BF7837BD4680BD004C004000100240D9
:1013880000080048FC0400201C00024080B586B01C
:1013980000AF7860144A154BD31A7B617B693B61B7
:1013A800134B1B68002B02D1114B124A1A60104BC9
:1013B8001A687B6813443A699A4207D20EF034FCE3
:1013C80003460C221A604FF0FF3309E0084B1B68F4
:1013D800FB60074B1A687B681344054A1360FB6877
:1013E80018461837BD4680BD0000022000040000E2
:1013F800A8050020D007002080B400AF01231846BC
:10140800BD465DF8047B704780B582B000AF786058
:1014180039600EF009FC034616221A604FF0FF33BC
:1014280018460837BD4680BD80B582B000AF7860E9
:101438004FF0FF317868FFF7E7FF00BFFDE70000D6
:101448000D48854605F0E4F80C480D490D4A00237F
:1014580002E0D458C4500433C4188C42F9D30A4A61
:101468000A4C002301E013600432A242FBD30EF0C1
:10147800E1FBFFF763F8FEE7000002200000002010
:101488007C020020EC0001087C020020D00700202C
:10149800FEE7000080B582B000AF78600B467B8025
:1014A8007B88002B10D00B4BD3F88830202B14BF2F
:1014B80001230023DBB2002B08D17B881A46796808
:1014C80004480BF027FF02E000BF00E000BF083728
:1014D800BD4680BD6804002080B483B000AF78604A
:1014E8007A68137823F0010313707A68137823F06D
:1014F800020313707A68137823F0040313707A6870
:10150800137823F0080313707B6818460C37BD4620
:101518005DF8047B704780B400AF62B600BFBD467B
:101528005DF8047B704780B400AF72B600BFBD465B
:101538005DF8047B7047000080B487B000AF87ED8A
:10154800030AC7ED020A87ED011A3F4B1B68DB6AE5
:101558007B61D7ED037AB7EE007AF4EEC77AF1EE45
:1015680010FA03DD4FF07E53FB6009E0D7ED037AF4
:10157800F5EEC07AF1EE10FA02D54FF00003FB60E9
:10158800D7ED027AB7EE007AF4EEC77AF1EE10FAE8
:1015980003DD4FF07E53BB6009E0D7ED027AF5EE2C
:1015A800C07AF1EE10FA02D54FF00003BB60D7ED18
:1015B800017AB7EE007AF4EEC77AF1EE10FA03DD9D
:1015C8004FF07E537B6009E0D7ED017AF5EEC07AE3
:1015D800F1EE10FA02D54FF000037B607B6907EE4D
:1015E800903AB8EE677AD7ED037A67EE277A164B0A
:1015F8001B68FCEEE77A17EE902A5A637B6907EEC0
:10160800903AB8EE677AD7ED027A67EE277A0E4BF2
:101618001B68FCEEE77A17EE902A9A637B6907EE5F
:10162800903AB8EE677AD7ED017A67EE277A064BDB
:101638001B68FCEEE77A17EE902ADA6300BF1C37C6
:10164800BD465DF8047B7047D003002080B500AF2D
:101658000021104809F0FCFE04210E4809F0F8FEAC
:1016680008210C4809F0F4FE00210A480BF04CFB55
:10167800042108480BF048FB082106480BF044FBFE
:10168800044B1B685A6C034B1B6842F400425A64B3
:1016980000BF80BDD003002080B500AF1D4B1B6884
:1016A8001A6A41F211131340002B0CBF01230023C7
:1016B800DBB2002B14D0174B1B681A6A44F2444360
:1016C8001340002B0CBF01230023DBB2002B07D0F3
:1016D800104B1B685A6C0F4B1B6822F400425A646B
:1016E80000210C4809F0C6FF04210A4809F0C2FF8E
:1016F8000821084809F0BEFF002106480BF0C6FB88
:10170800042104480BF0C2FB082102480BF0BEFB81
:1017180000BF80BDD003002080B500AFFFF7BCFF3D
:1017280000BF80BD80B500AF1C4B1B685B6C03F429
:101738000043002B0CBF01230023DBB2002B1FD07A
:101748000021164809F084FE0421144809F080FE9F
:101758000821124809F07CFE002110480BF0D4FA49
:1017680004210E480BF0D0FA08210C480BF0CCFAF3
:101778000A4B1B685A6C094B1B6842F400425A64B6
:10178800064B1B6800225A63044B1B6800229A63AD
:10179800024B1B680022DA6300BF80BDD003002023
:1017A80080B400AF0C4B1B685B6C03F40043002B48
:1017B8000CBF01230023DBB2002B07D0064B1B68AC
:1017C8005A6C054B1B6842F400425A6400BFBD4680
:1017D8005DF8047B704700BFD003002080B584B05B
:1017E80000AFF860B9607A603B6009210C4807F0E7
:1017F80045F803469AB2FB681A800921094807F0A0
:101808003DF803469AB2BB681A807B6800221A80AA
:101818003B6800221A8000BF1037BD4680BD00BF5C
:10182800980200200403002080B400AF034B1B88FB
:101838009BB21846BD465DF8047B7047AC05002096
:1018480080B483B000AF0346FB71FB790133054ACE
:1018580032F813309BB218460C37BD465DF8047B4E
:10186800704700BFAC05002080B400AF024B18469B
:10187800BD465DF8047B70470000002080B500AFCE
:101888007F21184806F0C2FD7F21174806F0BEFDEB
:10189800164B1B68DA6A154B1B680A3A1A6402224F
:1018A8001349114805F0E8FA0346002B14BF012339
:1018B8000023DBB2002B01D0FFF7D8F9094806F066
:1018C800D7FE094806F004FE0C21084809F0C0FDBF
:1018D800064B1B681A68054B1B6842F001021A6028
:1018E80000BF80BD9802002004030020D003002020
:1018F800AC05002080B582B000AF78607B681F33EC
:101908001846FFF7E9FD7B6818460837BD4680BDD5
:1019180080B5A6B000AF78607B681B68B3F1A04FB4
:101928003ED1214B4FF400729A61002000F07EFCFA
:101938001D4B4FF000729A611C4B1B780133DAB2D1
:101948001A4B1A70194B1B78132B8CBF01230023D9
:10195800DBB2002B24D0154B00221A7007F10803C4
:101968001846FFF7C7FF07F108031946104800F0AB
:101978005DFB104B1B685B6A1A460F4B1A600E4BD7
:101988001B6807EE903AF8EEE77AC7ED247A3B6DCC
:10199800C7F8943007F190030221184604F0ECFBD5
:1019A80000BF9837BD4680BD00040048B60500203A
:1019B8003C0600201C040020B805002080B582B039
:1019C80000AF78607B68002B10D07B681B68DA68F2
:1019D8007B681B6822F01F02DA607B681B686FF067
:1019E8001F021A611D2009F0CEFC00E000BF083775
:1019F800BD4680BD80B582B000AF78607B68002BA3
:101A080003D07B681B68002B01D1012330E07B6881
:101A18001B681A687B681B6822F001021A607B68E1
:101A28001B68DA687B681B6822F01F02DA607B6833
:101A38001B686FF01F021A611D2009F0A4FC7B6867
:101A48001B681A6A7B681B6822F011021A627B689D
:101A58001B681A6A7B681B6842F011021A627B686D
:101A68001B681A687B681B6842F001021A60002331
:101A780018460837BD4680BD80B483B000AF786093
:101A88007B68002B2ED07B681B68002B2AD07B68D4
:101A98001B681A6A7B681B6822F011021A627B684D
:101AA8001B681A6A41F211131340002B0CBF012363
:101AB8000023DBB2002B16D07B681B681A6A44F23D
:101AC80044431340002B0CBF01230023DBB2002B3F
:101AD80009D07B681B681A687B681B6822F00102C2
:101AE8001A6000E000BF0C37BD465DF8047B704704
:101AF80080B586B000AF78607B687B617B69002B1E
:101B080050D07B6918462C231A4600210EF030F875
:101B18007B69264A1A607B6900225A607B694FF00C
:101B2800FF329A607B694FF0FF32DA607B691B688D
:101B38003B613B691B685B6A1A461D4B1A60386932
:101B4800FFF73CFF3869FFF755FF0346FB73FA7B45
:101B58007B699A60FB7B002B06D03869FFF78CFF06
:101B68007B6900221A601EE0124A7B6913601D20FF
:101B780009F009FC1D2009F0DEFB0821386909F08D
:101B88006DFE0346FB73FA7B7B69DA60786900F0C7
:101B980013F802467B69DA6107F068FD02467B6943
:101BA8009A6200E000BF1837BD4680BD1C040020C3
:101BB800B8050020C005002080B487B000AF786069
:101BC8007B687B617B69002B03D07B691B68002BDA
:101BD80001D100230AE07B691B683B613B691B68F4
:101BE8005B6AFB60044AFB681360FB6818461C3795
:101BF800BD465DF8047B7047B805002080B586B007
:101C080000AF78607B68002B2AD07B681B68174A76
:101C1800934225D17B681B7F042B21D1144B1B6871
:101C28007B617B69002B1DD07B691B687A689A42AF
:101C380018D17B681B685B6A3B6107F017FDF86089
:101C48007B691B695A1C7B691A617B693A695A610D
:101C58007B69FA689A617B691B69064A136002E02E
:101C680000BF00E000BF1837BD4680BD000400403B
:101C7800C0050020BC05002080B582B000AF7860A8
:101C88007B68012283F868207B68002283F869203A
:101C98007B683422002118460DF06AFF7B683433D4
:101CA8003422002118460DF063FF7B681846083778
:101CB800BD4680BD80B586B000AFF860B9601346F8
:101CC800FB71FB79002B02D0FB790C2B01D9002387
:101CD8002EE0FB6893F86930002B01D0002327E041
:101CE800FB6893F86830002B01D0FB6801E0FB68C3
:101CF80034337B61FB799BB29B007B827B8A1A46DB
:101D0800B96878690DF0BCFF7B8A7A6913440A4A7E
:101D180010681860FB6893F8683083F00103DAB242
:101D2800FB6883F86820FB68012283F86920012397
:101D380018461837BD4680BDBCFC000880B483B087
:101D480000AF78607B6893F8693083F00103DBB2F9
:101D5800002B01D000230CE07B68002283F8692067
:101D68007B6893F86830002B02D07B68343300E03E
:101D78007B6818460C37BD465DF8047B704780B415
:101D880083B000AF78600B46FB70FB7801339BB2E1
:101D98009B009BB218460C37BD465DF8047B704724
:101DA80080B59EB000AF0346FB710A4AFB791370F9
:101DB80007F10C031846FFF75FFF074B184607F1BA
:101DC8000C036A2219460DF05BFF00BF7837BD4649
:101DD80080BD00BF2E060020C405002080B584B059
:101DE80000AF78600B46FB70194B1B68002B24D0A2
:101DF800184B1B78002B22D1FB781A4679681648B5
:101E0800FFF758FF034683F00103DBB2002B18D11C
:101E18001148FFF793FFF860FB68002B13D0FB789D
:101E280019460D48FFF7ABFF03467B81084B1B683B
:101E38007A891146F868984706E000BF04E000BFB9
:101E480002E000BF00E000BF1037BD4680BD00BF04
:101E5800300600202E060020C405002080B500AF03
:101E68000248FFF709FF00BF80BD00BFC40500207E
:101E780080B500AFFFF7F2FF80BD000080B483B0EB
:101E880000AF87ED010AD7ED017AF0EEE77A9FED12
:101E98000C7AF4EE477AF1EE10FA8CBF0123002396
:101EA800DBB283F00103DBB2002B14BF0123002354
:101EB800DBB218460C37BD465DF8047B704700BF9F
:101EC800FFFF7F7F80B483B000AF78607B681B78AA
:101ED80018460C37BD465DF8047B704780B483B064
:101EE80000AF78607B685B7818460C37BD465DF8B4
:101EF800047B704780B485B000AF78607B684FF092
:101F0800FF321A607B6800221A710023FB600CE024
:101F18000B4AFB6852F82330002B03D17B68FA6820
:101F28001A6005E0FB680133FB60FB68012BEFDDFD
:101F38007B6818461437BD465DF8047B704700BFC0
:101F48003406002090B583B000AF786039607B68B4
:101F58001B68002B01DA02231DE03B681B68002B7D
:101F680001D1042317E04FF479700CF015FD0346F6
:101F78001C463968204601F0AFFB7B681B68084A9D
:101F880042F823407B681B68054A52F823301846FC
:101F980001F056FC002318460C37BD4690BD00BF23
:101FA8003406002080B582B000AF78600B46FB7025
:101FB8007B681B68002B06DB7B681B680A4A52F8A3
:101FC8002330002B01D102230AE07B681B68064AF4
:101FD80052F82330FA781146184601F02DFE0023F6
:101FE80018460837BD4680BD3406002080B582B04B
:101FF80000AF78607B681B68002B06DB7B681B687A
:10200800094A52F82330002B01D1022308E07B68EB
:102018001B68054A52F82330184601F0A8FE002331
:1020280018460837BD4680BD3406002080B584B008
:1020380000AF786039607B681B68002B06DB7B6823
:102048001B68104A52F82330002B0FD107F10C03FC
:102058001846FFF741FA3B68184688231A460021BC
:102068000DF086FD3B683A7BDA7708E07B681B68F1
:10207800044A52F823303968184602F021F910371B
:10208800BD4680BD3406002080B584B000AF7860BE
:1020980039607B681B79002B01D0032331E07B6812
:1020A8001B68002B06DB7B681B68184A52F8233034
:1020B800002B01D1022324E03B681B68002B04D0CD
:1020C8003B681B79DBB2002B01D1012300E0002320
:1020D800002B01D0042314E00421786800F036F8BE
:1020E8000346FB73FB7B002B01D0FB7B09E07B687D
:1020F8001B68064A52F823303968184601F060FE1A
:10210800002318461037BD4680BD00BF34060020A6
:1021180080B483B000AF0346FB71FB79012B0BD071
:10212800FB79022B08D0FB79032B05D0FB79042B14
:1021380002D0FB79052B01D1012300E000231846CA
:102148000C37BD465DF8047B7047000080B584B04D
:1021580000AF78600B46FB707B681B68324A52F808
:102168002330002B01D102235AE07B681B682E4ADA
:1021780052F823301846FFF7B1FE0346FB737B681D
:102188001B68294A52F823301846FFF79BFE03467E
:10219800BB73BB7B022B04D0BB7B032B01D0032377
:1021A8003EE0FB7B1846FFF7B3FF03467B73FB78E3
:1021B8001846FFF7ADFF03463B737B7B83F00103B3
:1021C800DBB2002B11D03B7B83F00103DBB2002B89
:1021D8000BD07B681B68144A52F82330FA781146F2
:1021E800184601F000FD00231AE07B7B002B07D086
:1021F8003B7B83F00103DBB2002B01D003230FE00C
:102208003B7B002B0BD07B681B68074A52F82330B6
:10221800FA781146184601F0E6FC002300E0012395
:1022280018461037BD4680BD3406002080B584B0FE
:1022380000AF78607B68002B0DDB7B68012B0ADC24
:10224800074A7B6852F82330FB60FB68002B02D0FA
:10225800F86802F023F900BF1037BD4680BD00BF03
:102268003406002080B483B000AF78607B684FF0FC
:1022780000029A607B684FF000021A617B680122B5
:102288005A7500BF0C37BD465DF8047B704780B4B3
:1022980083B000AF78607B689B7818460C37BD46E2
:1022A8005DF8047B704780B483B000AF78607B68CA
:1022B800DB8818460C37BD465DF8047B704780B450
:1022C80083B000AF78607B681B7918460C37BD4631
:1022D8005DF8047B704780B483B000AF78600B462C
:1022E800FB707B68FA781A7100BF0C37BD465DF841
:1022F800047B704780B582B000AF78607868FFF7DC
:10230800D2FF0346002B14BF01230023DBB2002BAE
:102318001ED07868FFF7D6FD0346042B0DD07868E9
:10232800FFF7D0FD0346002B07D07868FFF7CAFDFA
:102338000346012B01D0012300E00023002B07D026
:102348007B689B6E9B6898470421786801F03CFC89
:102358007868FFF7B7FD0346042B21D801A252F88D
:1023680023F000BF81230008892300089123000877
:1023780099230008A1230008786800F019F813E0F1
:10238800786800F025F80FE0786800F035F80BE081
:10239800786800F0D3F807E0786800F0C7F903E040
:1023A800786800F005F800BF00BF0837BD4680BD5B
:1023B80080B582B000AF78607B680022A3F8302235
:1023C8000121786801F000FC00BF0837BD4680BDD8
:1023D80080B582B000AF78607B68B3F830227B6844
:1023E800B3F898309A4203D30221786801F0ECFBE5
:1023F80000BF0837BD4680BD80B584B000AF7860A7
:102408007B68DB7883F00103DBB2002B40F08F8020
:102418007868FFF73CFF0346FB73FB7B012B08D072
:10242800FB7B022B05D0FB7B032B02D0FB7B042B11
:1024380001D1012300E00023BB73FB7B082B05D0EF
:10244800FB7B072B02D0FB7B092B01D1012300E08A
:1024580000237B73FB7B052B0CBF012300233B73FD
:102468007B7B002B05D1BB7B002B02D13B7B002B58
:1024780060D07B7B002B0AD0786803F083FC03468E
:1024880083F00103DBB2002B01D0012300E000231D
:10249800002B4ED17B689B6E5B6898470321786858
:1024A80001F092FB7B680022C3F8F0227B6803F5F9
:1024B80073731846FFF7D6FEBB7B002B04D00121AF
:1024C8007868FFF708FF35E07B6893F87131FB7295
:1024D800FB7A022B21D0FB7A022B23D8FB7A002B24
:1024E80016D0FB7A012B1DD17B6893F87031022B33
:1024F80008D07B6893F87031002B01D1052302E0E6
:10250800022300E0062319467868FFF7E4FE11E08D
:1025180005217868FFF7DFFE0CE006217868FFF7F1
:10252800DAFE07E002217868FFF7D5FE02E000BF77
:1025380000E000BF1037BD4680BD000080B588B000
:1025480000AF78607B68DB7883F00103DBB2002B97
:1025580005D17868FFF79BFE0346002B01D10123C4
:1025680000E00023002B20D07B685B7A012B02D08F
:10257800022B05D009E07B689B6E1B69984709E030
:102588007B689B6E5B69984704E07B689B6EDB68A1
:10259800984700BF7B6800225A707B6800221A7136
:1025A8000221786801F010FBBCE07B6803F5B87382
:1025B800FB617868FFF783FE0346013B072B00F2B7
:1025C800A88001A252F823F01B270008F125000873
:1025D800372600088B2600081B270008C926000894
:1025E8001B2700081B270008FB6993ED027A7B680C
:1025F800D3ED6F7A67EE277AFCEEE77A17EE903A1A
:10260800BB607B68D3F8F032BA689A4280F0838066
:102618007B6803F573731846FFF724FE0321786877
:10262800FFF759FE7B680022C3F8F02273E0786850
:1026380001F035FEF0EE407AF0EEE77AC7ED047A65
:10264800FB6993ED0F7AFB69D3ED107A77EE277A61
:10265800C7ED037A97ED047AD7ED037AB4EEE77AFB
:10266800F1EE10FA00DC58E07B681B7A03F00103F6
:10267800DBB2002B51D04FF40071786803F053FBA4
:102688004BE07B681B7A03F00103DBB2002B46D1D9
:10269800FB691B78022B04D106217868FFF71BFE23
:1026A8003DE0FB691B78002B04D105217868FFF712
:1026B80012FE34E04FF48051786803F034FB2EE0CA
:1026C800786801F0ECFDF0EE407AF0EEE77AC7EDBD
:1026D800067AFB6993ED0F7AFB69D3ED107A77EEF2
:1026E800277AC7ED057A97ED067AD7ED057AB4EE25
:1026F800E77AF1EE10FA00DC13E07B681B7A03F04E
:102708000103DBB2002B0CD004217868FFF7E3FD4E
:1027180007E000BF06E000BF04E000BF02E000BF22
:1027280000E000BF2037BD4680BD00BF80B483B045
:1027380000AF786000BF0C37BD465DF8047B70477A
:1027480080B582B000AF87ED010AC7ED000AD7ED6A
:10275800000A97ED010A0CF0E1F9F0EE407AB0EECC
:10276800670A0837BD4680BD80B582B000AF87EDE7
:10277800010AC7ED000AD7ED000A97ED010A0CF02F
:10278800F5F9F0EE407AB0EE670A0837BD4680BD2D
:1027980080B582B000AF786039603B681A687B68A2
:1027A8001A603B685A687B685A603B689A687B681D
:1027B8009A603B68DA687B68DA60786800F004F849
:1027C80000BF0837BD4680BD80B483B000AF7860D5
:1027D8007B684FF000029A617B689A697B685A614E
:1027E8007B685A697B681A6100BF0C37BD465DF883
:1027F800047B704780B588B000AFF86087ED020AA7
:10280800C7ED010AFB68D3ED007A97ED027A67EE0F
:10281800277AC7ED067AFB6893ED047AFB68D3ED57
:10282800016AD7ED027A66EEA76AD7ED017A66EEFD
:10283800A77A77EE277AFB68C3ED047AFB68D3EDB5
:10284800037AF5EEC07AF1EE10FA1ADDFB68D3EDE3
:10285800037AF1EE677AC7ED047AFB6803F10C029C
:10286800FB6810331946104603F08CFB024607F14B
:1028780010031146184603F09EFB03461A68FB68CE
:102888001A614FF00003FB61D7ED017A9FED3E7AA4
:10289800F4EEC77AF1EE10FA11DDFB6893ED027AD7
:1028A800FB68D3ED057AD7ED026A76EEE77A67EE34
:1028B800276A97ED017AC6EE877AC7ED077AFB6833
:1028C80093ED047AD7ED067A37EE277AD7ED077AB3
:1028D80077EE277AFB68C3ED067AFB68D3ED037AB7
:1028E800F5EEC07AF1EE10FA42DD97ED067AD7EDF3
:1028F800077A77EE277AC7ED057AFB6893ED067AB3
:10290800FB68D3ED037AB4EEE77AF1EE10FA0EDD48
:10291800FB6893ED037AD7ED057A77EE677AFB6863
:10292800C3ED047AFB68DA68FB689A6120E0FB680B
:1029380093ED067AFB68D3ED037AF1EE677AB4EE8D
:10294800E77AF1EE10FA13D5FB68D3ED037AB1EE0E
:10295800677AD7ED057A77EE677AFB68C3ED047A74
:10296800FB68D3ED037AF1EE677AFB68C3ED067A6C
:10297800FB68BA685A61FB689B6907EE903AB0EE4B
:10298800670A2037BD4680BD5F70893080B582B048
:1029980000AF786039607A683B6803F5AC73194614
:1029A8001046FFF7F5FE7B6803F11C023B6803F550
:1029B800B67319461046FFF7EBFE7B6803F1380241
:1029C8003B6803F5C07319461046FFF7E1FE7B68C4
:1029D80003F154023B6803F5CA7319461046FFF722
:1029E800D7FE00BF0837BD4680BD80B582B000AFB6
:1029F80078607B681846FFF7E7FE7B681C3318464B
:102A0800FFF7E2FE7B6838331846FFF7DDFE7B6888
:102A180054331846FFF7D8FE00BF0837BD4680BDBF
:102A280080B483B000AF786087ED000A7B683A68AD
:102A38001A607B68074A5A607B684FF000029A6008
:102A48007B6800221A737B6818460C37BD465DF810
:102A5800047B704717B7513880B483B000AF7860F3
:102A680087ED000A7B683A681A6000BF0C37BD46DC
:102A78005DF8047B704780B483B000AF786087ED61
:102A8800000AD7ED007AF5EEC07AF1EE10FA00DC14
:102A980002E07B683A685A6000BF0C37BD465DF8B3
:102AA800047B704780B485B000AF786087ED000A7A
:102AB8007B681B7B83F00103DBB2002B07D07B68AC
:102AC8003A689A607B6801221A733B6844E07B6825
:102AD800D3ED007AF5EEC07AF1EE10FA0DDD7B68E1
:102AE800D3ED016A7B6893ED007A7B68D3ED017AB8
:102AF80037EE277AC6EE877A01E0F7EE007AC7ED5F
:102B0800037AD7ED037AB7EE007AF4EEC77AF1EEDE
:102B180010FA02DD4FF07E53FB60D7ED037AF5EE35
:102B2800C07AF1EE10FA02D54FF00003FB607B6823
:102B380093ED027A7B68D3ED027AD7ED006A76EEE0
:102B4800E76AD7ED037A66EEA77A77EE277A7B688D
:102B5800C3ED027A7B689B6807EE903AB0EE670A8D
:102B68001437BD465DF8047B704780B483B000AF6E
:102B7800786087ED000A7B683A689A607B68002273
:102B88001A7300BF0C37BD465DF8047B704780B4EC
:102B980085B000AFF860B9601346FB71FB68BA688E
:102BA8001A60FB68FA791A7100BF1437BD465DF8E0
:102BB800047B704780B58AB000AFF860B9607A606E
:102BC8003B60FB681B68002B17D0FB681B685B68C1
:102BD800002B12D0FB681B681B68002B0DD0FB680C
:102BE8001B685B68FA681268D26910469847034602
:102BF80083F00103DBB2002B01D0012300E00023A6
:102C0800002B01D0002385E0FB681B681B68FA686D
:102C18001268D2691046984787ED060A4FF00003FC
:102C28007B6200233B62FB681B689B68002B09D012
:102C3800FB681B689B68FA681268D2691046984757
:102C480087ED090AFB681B68DB68002B08D0FB6866
:102C58001B68DB68FA681268D269104698473862C0
:102C6800FB681B6893F82030FB7597F9173007EE5F
:102C7800903AF8EEE77A97ED097A67EE277AC7ED8A
:102C8800097AFB681B7907EE903AB8EEE77AD7ED38
:102C9800067A27EE277A97F9173007EE903AF8EE7A
:102CA800E77A27EE277AFB681B68D3ED0A7A77EE76
:102CB800277AC7ED077A07E0D7ED077A9FED177AED
:102CC80077EEC77AC7ED077AD7ED077A9FED137AC3
:102CD800F4EEC77AF1EE10FAEEDA07E0D7ED077AEC
:102CE8009FED0E7A77EE877AC7ED077AD7ED077AE8
:102CF800F5EEC07AF1EE10FAF0D4BB68FA691A6002
:102D08007B687A6A1A603B68BA691A603B6B3A6AF0
:102D18001A60012318462837BD4680BDDB0FC9401D
:102D280080B584B000AFF86087ED020A0B46FB71EE
:102D3800FB68BA681A60FB79002B01D0FA7900E0C9
:102D48000122FB681A75F868FFF78CFA00BF103784
:102D5800BD4680BD80B485B000AFF86087ED020A3B
:102D6800C7ED010AFB68BA685A60FB685B7D002BF7
:102D78001FD0FB684FF000029A60FB684FF000021A
:102D8800DA60D7ED017A9FED0E7AF4EEC77AF1EEAC
:102D980010FA0BDDFB68D3ED017AF0EEE76A97EDE8
:102DA800017AC6EE877AFB68C3ED037AFB680022D6
:102DB8005A7500BF1437BD465DF8047B704700BFE5
:102DC8006F12833A80B487B000AF786087ED000A4D
:102DD8007B68D3ED037AF5EEC07AF1EE10FA39DDAF
:102DE8007B6893ED017A7B68D3ED027A77EE677A98
:102DF800C7ED057A7B68D3ED037A97ED007A67EE25
:102E0800277AC7ED047AD7ED057AF0EEE77A97EDE1
:102E1800047AB4EEE77AF1EE10FA04DD7B685A68BA
:102E28007B689A601AE07B6893ED027AD7ED057AA1
:102E3800F5EEC07AF1EE10FA02DDD7ED047A03E080
:102E4800D7ED047AF1EE677A77EE877A7B68C3ED7F
:102E5800027A03E07B685A687B689A607B68D3EDE6
:102E6800027A9FED277A27EE877AF3EE0E6AC7EE8D
:102E7800267AC7ED037A7B6893ED047A7B681B7D1D
:102E880007EE903AF8EE676AD7ED037A66EEA76A1E
:102E9800D7ED007A66EEA77A77EE277A7B68C3EDDE
:102EA800047A09E07B68D3ED047A9FED167A77EE11
:102EB800C77A7B68C3ED047A7B68D3ED047A9FED0B
:102EC800117AF4EEC77AF1EE10FAEBDC09E07B68D0
:102ED800D3ED047A9FED0B7A77EE877A7B68C3EDA2
:102EE800047A7B68D3ED047AF5EEC07AF1EE10FA35
:102EF800EDD400BF00BF1C37BD465DF8047B7047AA
:102F0800DB0F4940DB0FC94080B483B000AF786065
:102F18007B681B6907EE903AB0EE670A0C37BD462E
:102F28005DF8047B704780B483B000AF78607B683D
:102F38009B6807EE903AB0EE670A0C37BD465DF81D
:102F4800047B704780B483B000AF0346FB71FB7904
:102F5800052B1BD801A252F823F000BF7D2F0008D3
:102F6800812F0008852F0008892F00088D2F000861
:102F7800912F000801230AE0002308E0002306E05F
:102F8800002304E0002302E0002300E000231846A9
:102F98000C37BD465DF8047B704700BF80B483B032
:102FA80000AF0346FB71FB79013B042B16D801A245
:102FB80052F823F0D12F0008D52F0008D92F000888
:102FC800DD2F0008E12F0008002308E0002306E0B9
:102FD800002304E0002302E0002300E00023184659
:102FE8000C37BD465DF8047B704700BF80B582B0E2
:102FF80000AF78607B6893F809311846FFF7A2FFA5
:10300800034683F00103DBB2002B02D04FF40073B8
:103018004CE17B6893F80831002B0AD10020FFF7B8
:1030280091FF034683F00103DBB2002B01D001239B
:1030380000E00023002B02D04FF4007336E17B68D8
:1030480093F80831022B0AD10220FFF77BFF0346D1
:1030580083F00103DBB2002B01D0012300E0002341
:10306800002B02D04FF4007320E17B6893F8F43012
:10307800002B07D07B68D3ED3E7AF5EEC07AF1EEEF
:1030880010FA0CD97B6893F8E830002B09D07B68DC
:10309800D3ED3C7AF5EEC07AF1EE10FA01D8802330
:1030A80004E17B6893F8E030002B0DD07B68D3F8FF
:1030B800E430184600F0FEF8034683F00103DBB263
:1030C800002B01D0012300E00023002B02D04FF495
:1030D8008073EBE07B6893F8E830002B0DD07B68B9
:1030E800D3F8EC30184600F0E5F8034683F0010306
:1030F800DBB2002B01D0012300E00023002B02D01B
:103108004FF48073D2E07B6893F8FE30002B17D021
:103118007B6893F8E03083F00103DBB2002B0CD11D
:103128007B68D3ED407AF5EEC07AF1EE10FA04D957
:103138007B68B3F80431002B02D14FF48073B5E0FB
:103148007B6893F82D31002B25D07B6893F82E31BE
:10315800002B0CD07B68D3ED4C7AF5EEC07AF1EEFB
:1031680010FA04D97B68B3F83431002B01D18023DD
:103178009CE07B6893F82E311846FFF70FFF034653
:1031880083F00103DBB2002B02D04FF400738DE013
:103198004FF400738AE07B6893F80931052B00F23D
:1031A8008480022B7ED2002B02D0012B2AD07CE017
:1031B8007B68D3F8DC30184600F07CF8034683F0CF
:1031C8000103DBB2002B04D17B6893F80831002B94
:1031D80001D0012300E00023002B02D04FF48073BC
:1031E80064E07B68B3F8FC30002B01D180235DE0FC
:1031F8007B6893F82C31002B02D04FF4007355E014
:10320800002353E07B68D3ED527AF5EEC07AF1EEF5
:1032180010FA2FD47B6893ED517A7B68D3ED527AFC
:10322800B4EEE77AF1EE10FA24D97B68D3ED447A4C
:10323800F5EEC07AF1EE10FA1CD47B68D3ED457A2E
:10324800F5EEC07AF1EE10FA14D97B68D3ED467A20
:10325800F5EEC07AF1EE10FA0CD97B68D3ED537A0B
:10326800F5EEC07AF1EE10FA04D97B68B3F8503164
:10327800002B01D1802319E07B6893F80831022BD9
:1032880004D07B6893F80831002B02D14FF4007307
:103298000CE07B6893F80831012B01D0802305E00E
:1032A800002303E04FF4007300E08023184608373A
:1032B800BD4680BD80B483B000AF78607B68002BCA
:1032C80009D07B681B68002B05D07B685B68002BE6
:1032D80001D0012300E0002318460C37BD465DF8F5
:1032E800047B704780B48DB000AF87ED030AC7ED4B
:1032F800020A87ED011A3860D7ED017A9FED5C7AF2
:10330800F4EEC77AF1EE10FA01D55A4B7B605A4BAE
:103318007B62FB683B62D7ED037ABEEE007A27EE4C
:10332800877AD7ED027ADFED556A67EEA67A77EEEF
:10333800277AC7ED077AD7ED037ABEEE007A27EE33
:10334800877AD7ED027ADFED4D6A67EEA67A77EED7
:10335800677AC7ED067A3B6AFB6297ED077AD7ED85
:103368000B7AB4EEE77AF1EE10FA01DDFB69FB6245
:1033780097ED067AD7ED0B7AB4EEE77AF1EE10FA0C
:1033880001DDBB69FB623B6ABB6297ED077AD7ED4B
:103398000A7AB4EEE77AF1EE10FA01D5FB69BB625E
:1033A80097ED067AD7ED0A7AB4EEE77AF1EE10FADD
:1033B80001D5BB69BB6297ED0B7AD7ED0A7A77EE38
:1033C800277AF1EE677AB6EE007A67EE877AC7ED6C
:1033D800057A97ED087AD7ED057A77EE277AC7ED63
:1033E800087A97ED077AD7ED057A77EE277AC7ED51
:1033F800077A97ED067AD7ED057A77EE277AC7ED43
:10340800067AF7EE006A97ED017AC6EE877AC7ED7D
:10341800047A97ED087AD7ED047A67EE277AB6EE44
:10342800007A77EE877A3B68C3ED007A97ED077AE2
:10343800D7ED047A67EE277A3B680433B6EE007A54
:1034480077EE877AC3ED007A97ED067AD7ED047A9E
:1034580067EE277A3B680833B6EE007A77EE877A0C
:10346800C3ED007A00BF3437BD465DF8047B704772
:10347800CDCCCC3DCDCCCC3DD7B35D3FD7B35D3FB4
:1034880080B48BB000AF87ED030AC7ED020A87ED61
:10349800011A3860D7ED017A9FED317AF4EEC77AD8
:1034A800F1EE10FA01D52F4B7B602F4B7B62FB6846
:1034B8003B62D7ED037ABEEE007A27EE877AD7ED26
:1034C800027ADFED2A6A67EEA67A77EE277AC7EDE9
:1034D800077AD7ED037ABEEE007A27EE877AD7ED22
:1034E800027ADFED226A67EEA67A77EE677AC7ED91
:1034F800067AF7EE006A97ED017AC6EE877AC7ED8D
:10350800057A97ED087AD7ED057A67EE277AB6EE51
:10351800007A77EE877A3B68C3ED007A97ED077AF1
:10352800D7ED057A67EE277A3B680433B6EE007A62
:1035380077EE877AC3ED007A97ED067AD7ED057AAC
:1035480067EE277A3B680833B6EE007A77EE877A1B
:10355800C3ED007A00BF2C37BD465DF8047B704789
:10356800CDCCCC3DCDCCCC3DD7B35D3FD7B35D3FC3
:1035780080B483B000AF87ED010A07E0D7ED017A88
:103588009FED157A77EEC77AC7ED017AD7ED017A04
:103598009FED127AF4EEC77AF1EE10FAEEDC07E04E
:1035A800D7ED017A9FED0C7A77EE877AC7ED017A2D
:1035B800D7ED017A9FED0A7AF4EEC77AF1EE10FAA8
:1035C800EED47B6807EE903AB0EE670A0C37BD463A
:1035D8005DF8047B704700BFDB0FC940DB0F494033
:1035E800DB0F49C080B483B000AF78607B684FF0D0
:1035F80000021A607B684FF000025A607B684FF047
:1036080000029A607B684FF00002DA607B684FF036
:1036180000021A617B684FF000025A617B684FF024
:1036280000029A617B6818460C37BD465DF8047B3A
:10363800704780B582B000AF78607B681846FFF7A6
:10364800D1FF7B681C331846FFF7CCFF7B68383303
:103658001846FFF7C7FF7B6854331846FFF7C2FFC9
:103668007B6818460837BD4680BD80B483B000AF7C
:1036780078607B6800221A607B6800221A717B6878
:1036880018460C37BD465DF8047B704780B483B09C
:1036980000AF78607B680F4A1A607B684FF00002C1
:1036A8005A607B684FF000029A607B684FF0000216
:1036B800DA607B684FF000021A617B6801221A7594
:1036C8007B6801225A757B6818460C37BD465DF841
:1036D800047B704700401C4680B582B000AF78601C
:1036E80039607B6800221A707B6800225A707B68F8
:1036F80000229A707B680022DA707B6800221A71B7
:103708007B680022DA807B6808331846FDF7E4FE00
:103718007B6800225A727B680C339FED480A184672
:10372800FFF77EF97B681C339FED440A1846FFF7C4
:1037380077F97B682C339FED410A1846FFF770F93B
:103748007B683C339FED3D0A1846FFF769F97B68B3
:103758004C339FED3A0A1846FFF762F97B6800225E
:103768001A667B684FF000025A667B6803F16802AC
:103778003B68104619464FF4D6731A460CF080FA87
:103788007B6803F505734FF49472002118460CF01A
:10379800EFF97B6803F54F737022002118460CF08F
:1037A800E7F97B6803F54F731846FFF742FF7B681C
:1037B8000022A3F8AE237B680022A3F8B0237B681D
:1037C80003F56D731846FFF750FF7B6803F56F73B9
:1037D8001846FFF74AFF7B6803F571731846FFF731
:1037E80044FF7B6803F573731846FFF74FFF7B6848
:1037F80093ED6F7AF7EE006AC6EE877A7B68C3EDC1
:10380800177A7B68D3ED507AF5EEC07AF1EE10FAAC
:103818000CDD7B68D3ED506A7B6893ED177AC6EEB2
:10382800877AFCEEE77A17EE902A00E000227B68A0
:103838001A667B6818460837BD4680BD0AD7A33B81
:1038480080B586B000AF78607B6800221A707B680C
:1038580000225A707B6893F812227B689A707B6802
:103868000022DA707B6800221A717B680022DA80F5
:1038780007F108031846FDF72FFE7B683A7A1A729B
:103888007B6803F505734FF49472002118460CF019
:103898006FF97B684FF08042C3F804237B680122EC
:1038A800A3F88E227B680122A3F89E227B6801225E
:1038B800A3F8AE227B680022A3F8AE237B6800221F
:1038C800A3F8B0237B68D3F8A0307B617B68D3F87A
:1038D8009C303B617B6893F8A430012B12D1D7ED63
:1038E800047A9FEDB77A67EE876A7B6893ED307A42
:1038F800D7ED057A27EE277AC6EE877A7B68C3ED7F
:10390800857A12E07B6893ED2D7AD7ED057A27EE5C
:10391800277A7B68D3ED2E7A27EE277AD7ED046ACB
:10392800C6EE877A7B68C3ED857A7B6893ED327A39
:10393800D7ED057A27EE277A7B68D3ED337A27EE21
:10394800277AD7ED046AC6EE877A7B68C3ED867A54
:103958007B6893ED2B7A7B68D3ED2C7A77EE276A18
:103968007B6893ED2C7AC6EE877AC7ED037AD7ED9C
:10397800046AD7ED057A86EEA77AD7ED037A67EE63
:10398800277A7B68C3ED877A7B6803F10C027B6832
:10399800D3ED347AB0EE670A1046FFF75DF87B681E
:1039A80003F11C027B68D3ED347AB0EE670A104647
:1039B800FFF752F87B6803F12C027B68D3ED347A69
:1039C800B0EE670A1046FFF747F87B6803F13C0240
:1039D8007B68D3ED357AB0EE670A1046FFF73CF8FE
:1039E8007B6803F14C027B68D3ED367AB0EE670A48
:1039F8001046FFF731F87B6803F10C027B68D3EDC2
:103A0800177AB0EE670A1046FFF735F87B6803F1BE
:103A18001C027B68D3ED177AB0EE670A1046FFF7F1
:103A28002AF87B6803F12C027B68D3ED177AB0EE95
:103A3800670A1046FFF71FF87B6803F13C027B68B2
:103A4800D3ED177AB0EE670A1046FFF714F87B68D3
:103A580003F14C027B68D3ED177AB0EE670A104683
:103A6800FFF709F87B6803F54F727B6868331946DE
:103A78001046FEF78BFF7B6803F56D707B68D3F803
:103A880044117B6893F86C301A46FFF780F87B681E
:103A980003F56F707B68D3F84C117B6893F86C3032
:103AA8001A46FFF774F87B6803F571707B68D3F8E2
:103AB80054117B6893F86C301A46FFF768F87B68F6
:103AC800D3F84431002B0FD07B68D3F844315B69BD
:103AD800002B09D07B68D3F844315B697A68D2F847
:103AE8004421D269104698477B6893F84831002BE7
:103AF80014D07B68D3F84C31002B0FD07B68D3F8F7
:103B08004C315B69002B09D07B68D3F84C315B6979
:103B18007A68D2F84C21D269104698477B6893F8A6
:103B28005031002B14D07B68D3F85431002B0FD0C0
:103B38007B68D3F854315B69002B09D07B68D3F8D4
:103B480054315B697A68D2F85421D2691046984793
:103B58007B6803F573727B68D3ED6F7A7B6893F8A3
:103B68006C301946B0EE670A1046FFF7D9F87B6843
:103B78004FF000025A667B689B6E002B08D07B686A
:103B88009B6E9B68002B03D07B689B6E9B68984755
:103B98007B689B6E002B0ED07B689B6E1B68002B8E
:103BA80009D07B689B6E1B689FED061ADFED050A3E
:103BB8009FED040A984700BF1837BD4680BD00BF77
:103BC80000007A440000000080B483B000AF786041
:103BD8000B46FB707B68FA781A7000BF0C37BD463D
:103BE8005DF8047B704780B582B000AF78600B4603
:103BF800FB707B685B78FA789A420ED0FB78042BCE
:103C080005D0FB78032B02D0FB78022B05D17B680B
:103C180003F54F731846FEF7E8FE7B68FA789A704A
:103C2800FB78002B14BF01230023DAB27B68DA701B
:103C380000BF0837BD4680BD80B584B000AF78604E
:103C48000B46FB707B689B6E002B0BD07B689B6ED2
:103C58009B6A002B06D07B689B6EDB6A002B01D029
:103C6800012300E00023FB73FB7B002B03D07B6860
:103C78009B6E9B6A98477B68FA785A727B6893F8C0
:103C880012227B689A707B680022DA707B680022B7
:103C98005A707B6800221A717B6802221A707B684E
:103CA8004FF00002C3F8E4227B684FF00002C3F82B
:103CB800E8227B684FF00002C3F8EC227B684FF0E3
:103CC8000002C3F8C4227B684FF00002C3F8C82280
:103CD8007B684FF00002C3F8CC227B684FF00002EB
:103CE800C3F8D0227B6803F54F731846FEF77DFEB4
:103CF8007B6803F573731846FEF7B4FA7B689B6E0E
:103D0800002B29D0FB78012B03D0FB78022B0AD09B
:103D180013E07B689B6E1B69002B18D07B689B6E39
:103D28001B69984713E07B689B6E5B69002B10D07A
:103D38007B689B6E5B6998470BE07B689B6EDB68D2
:103D4800002B08D07B689B6EDB68984703E000BFB8
:103D580002E000BF00E000BFFB7B002B03D07B68C4
:103D68009B6EDB6A984700BF1037BD4680BD80B5A3
:103D780082B000AF78607B680022DA807B6893F8B5
:103D880012227B689A707B680022DA707B680022B6
:103D98005A707B6800221A717B6802221A707B684D
:103DA8009B6E002B08D07B689B6E9B68002B03D012
:103DB8007B689B6E9B68984700BF0837BD4680BDEF
:103DC80080B582B000AF786039607B683A68C3F824
:103DD80018237B680022C3F81C23786800F01FF8BA
:103DE80000BF0837BD4680BD80B483B000AF78609F
:103DF8007B68D3ED197AF5EEC07AF1EE10FA02DDA0
:103E08007B685B6E02E07B68D3F87C3107EE903A02
:103E1800B0EE670A0C37BD465DF8047B704780B585
:103E280082B000AF78607B68002283F820237B682B
:103E38004FF00002C3F824237B684FF00002C3F858
:103E480028237B684FF00002C3F82C237B684FF0CF
:103E58000002C3F830237B684FF00002C3F8342314
:103E68007B68002283F838237B6803F57373184650
:103E7800FEF7F8F900BF0837BD4680BD80B48DB0A5
:103E880000AFF860B9607A60FB68D3F818337B62DA
:103E98007B6A002B08D07B6A1B68002B04D07B6AE6
:103EA8001B79DBB2002B01D1012300E00023002B9A
:103EB80001D00023D7E0FB6893F820237B6A1B79A5
:103EC800DBB29A422CBF01230023DBB2002B07D0C0
:103ED8007B6A1B79DBB2013BDAB2FB6883F82023EB
:103EE8007B6A1A68FB6893F8203319460B465B0017
:103EF8000B449B0013443B623B6A1B68FB623B6AB2
:103F08005B68FB613B6A9B68BB61FB6893F838336D
:103F180083F00103DBB2002B08D0FB68012283F891
:103F28003823FB684FF00002C3F82423FB68D3ED65
:103F3800177A97ED0B7AB4EEE77AF1EE10FA02D51C
:103F4800FB68DB6DFB62FB6893EDC97AFB68D3ED18
:103F5800177A77EE277AC7ED057AD7ED056A97EDD8
:103F68000B7AC6EE877AC7ED0A7AD7ED0A7AB7EEEA
:103F7800007AF4EEC77AF1EE10FA02DD4FF07E53C4
:103F8800BB62D7ED0A7AF5EEC07AF1EE10FA02D5E7
:103F98004FF00003BB62FB6893EDCA7AFB68D3ED70
:103FA800CA7AD7ED076A76EEE76AD7ED0A7A66EE3F
:103FB800A77A77EE277ABB68C3ED007AFB6893EDA2
:103FC800CB7AFB68D3EDCB7AD7ED066A76EEE76A53
:103FD800D7ED0A7A66EEA77A77EE277A7B68C3ED83
:103FE800007AFB687A69C3F8242397ED057AD7ED40
:103FF8000B7AB4EEE77AF1EE10FA33DBFB6893F84C
:10400800203301337A6A1279D2B2934234BF012342
:104018000023DBB2002B19D0FB6893F8203301335F
:10402800DAB2FB6883F82023FB684FF00002C3F87C
:104038002423FB68FA69C3F82823FB68BA69C3F824
:104048002C23FB68012283F838230BE0FB68FA6A0B
:10405800C3F82423FB68FA69C3F82823FB68BA6904
:10406800C3F82C23012318463437BD465DF8047B7A
:10407800704780B48DB000AFF860B9607A603B607B
:10408800FB68D3F81C337B627B6A002B08D07B6A01
:104098001B68002B04D07B6A1B79DBB2002B01D193
:1040A800012300E00023002B01D00023F1E0FB688E
:1040B80093F820237B6A1B79DBB29A422CBF012339
:1040C8000023DBB2002B07D07B6A1B79DBB2013BF4
:1040D800DAB2FB6883F820237B6A1A68FB6893F8D6
:1040E80020331B0113443B623B6A1B68FB623B6A3B
:1040F8005B68FB613B6A9B68BB613B6ADB687B6111
:10410800FB6893F8383383F00103DBB2002B08D047
:10411800FB68012283F83823FB684FF00002C3F8DC
:104128002423FB68D3ED177A97ED0B7AB4EEE77A80
:10413800F1EE10FA02D5FB68DB6DFB62FB6893EDCC
:10414800C97AFB68D3ED177A77EE277AC7ED047A38
:10415800D7ED046A97ED0B7AC6EE877AC7ED0A7A2F
:10416800D7ED0A7AB7EE007AF4EEC77AF1EE10FAD4
:1041780002DD4FF07E53BB62D7ED0A7AF5EEC07AC6
:10418800F1EE10FA02D54FF00003BB62FB6893ED25
:10419800CA7AFB68D3EDCA7AD7ED076A76EEE76A82
:1041A800D7ED0A7A66EEA77A77EE277ABB68C3ED71
:1041B800007AFB6893EDCC7AFB68D3EDCC7AD7ED27
:1041C800066A76EEE76AD7ED0A7A66EEA77A77EEA0
:1041D800277A7B68C3ED007AFB6893EDCD7AFB689C
:1041E800D3EDCD7AD7ED056A76EEE76AD7ED0A7A90
:1041F80066EEA77A77EE277A3B68C3ED007AFB680C
:104208003A69C3F8242397ED047AD7ED0B7AB4EE14
:10421800E77AF1EE10FA3BDBFB6893F820330133C1
:104228007A6A1279D2B2934234BF01230023DBB2F7
:10423800002B1DD0FB6893F820330133DAB2FB68FA
:1042480083F82023FB684FF00002C3F82423FB689F
:10425800FA69C3F82823FB68BA69C3F83023FB68F6
:104268007A69C3F83423FB68012283F838230FE006
:10427800FB68FA6AC3F82423FB68FA69C3F82823A1
:10428800FB68BA69C3F83023FB687A69C3F834233A
:10429800012318463437BD465DF8047B704780B467
:1042A80083B000AF78607B68D3F87C3207EE903A31
:1042B800B0EE670A0C37BD465DF8047B7047000016
:1042C80080B582B000AF786039607B681A783B6847
:1042D8001A707B68DA883B685A807B68D3F8542266
:1042E8003B685A607B68D3F87C223B689A607B689D
:1042F800D3F858223B68DA607B68D3F85C223B68C5
:104308001A617B68D3F860223B685A617B68D3F8EE
:1043180064223B689A617B685A783B681A777B68A5
:104328009A783B685A777B681A793B689A773B6832
:104338007A68127ADA777B68D3F844223B681A6283
:104348007B68D3F848223B685A627B68D3F84C22D2
:104358003B689A627B68D3F850223B68DA627B68D4
:10436800D3F8BC223B681A637B68D3F8C0223B6849
:104378005A637B68D3F868223B689A637B68D3F8F2
:104388006C223B68DA637B68D3F870223B681A6456
:104398007B68D3F874223B685A647B68D3F8782228
:1043A8003B689A647B68D3F888223B68DA647B6848
:1043B80093F88C223B6883F850207B68B3F88E22F0
:1043C8003B68A3F852207B68D3F890223B685A6573
:1043D8007B68D3F894223B689A657B68D3F8982267
:1043E8003B68DA657B6893F89C223B6883F8602019
:1043F8007B68B3F89E223B68A3F862207B68D3F8F9
:10440800A0223B685A667B68D3F8A4223B689A6668
:104418007B68D3F8A8223B68DA667B6893F8AC22FD
:104428003B6883F870207B68B3F8AE223B68A3F83A
:1044380072207B68D3F8B0223B685A677B68D3F850
:10444800E4223B689A677B68D3F8E8223B68DA671E
:104458007B68D3F8EC223B68C3F880207B6893F82C
:104468008C32002B0ED07B6893ED9C7A7B68D3ED61
:104478009D7A77EE677AB0EE670AFFF779F8F0EE83
:10448800407A01E0DFED047A3B68C3ED217A00BF92
:104498000837BD4680BD00BF0000000080B584B06D
:1044A80000AF78607B68D3F8F0325A1C7B68C3F899
:1044B800F022786800F02CF9786800F0B3FA786890
:1044C80000F09AFC7868FDF715FF7B681B78012BD4
:1044D80002D1786800F0CEFE7B681B78022B47D1AA
:1044E8007B6893F8FC32002B0FD0786800F0C2FE8E
:1044F8007B68B3F830227B68B3F898309A423FD390
:104508007B68002283F8FC223AE07B681B6E002B54
:1045180036D07B68D3F8F8325A1C7B68C3F8F82287
:104528007B68D3F8F8227B681B6E9A4228D37B6895
:104538000022A3F830227B684FF00002C3F8202243
:104548007B684FF00002C3F824227B684FF000021A
:10455800C3F828227B684FF00002C3F82C227B683E
:10456800012283F8FC227B680022C3F8F82207E0C6
:104578007B680022C3F8F8227B68002283F8FC22BB
:104588007B681B78032B60D17B689A787B685A70AC
:104598007B681B79012B11D17B685B78012B0BD0D1
:1045A8007B685B78022B07D07B685B78032B03D092
:1045B8007B685B78042B01D1012300E00023FB73A7
:1045C800FB7B83F00103DBB2002B02D0786800F09C
:1045D8008EFC7B681B79012B24D17B685B78013BBF
:1045E800032B1BD801A252F823F000BF0546000890
:1045F8000D460008154600081D460008786800F0BA
:1046080007FF22E0786801F08DF81EE0786801F075
:104618006FF91AE0786800F017FF16E0786800F084
:10462800D9FC12E07B681B79022B02D0032B04D043
:1046380007E0786801F076F807E0786801F058F943
:1046480003E0786800F0C6FC00BF7B68D3F88C30C4
:10465800BB607B68D3EDB97AF0EE670A97ED020A82
:10466800FEF782F8F0EE407AF0EE670A9FED270A2F
:10467800FEF766F8F0EE407A7B68C3EDB97A7B689E
:10468800D3EDBA7AF0EE670A97ED020AFEF76CF8F6
:10469800F0EE407AF0EE670A9FED1C0AFEF750F83C
:1046A800F0EE407A7B68C3EDBA7A7B68D3EDBB7ACB
:1046B800F0EE670A97ED020AFEF756F8F0EE407A38
:1046C800F0EE670A9FED110AFEF73AF8F0EE407A2D
:1046D8007B68C3EDBB7A7B681B78032B12D17B68A0
:1046E8009B6E1B687A68D2EDB97A7A6892EDBA7ACD
:1046F8007A68D2EDBB6AB0EE661AF0EE470AB0EE01
:10470800670A984700BF1037BD4680BD000000000B
:1047180090B58FB000AF78607B689B6E7B627B6AD8
:10472800002B00F0798100237B8200233B82002349
:10473800FB810023BB817B6A9C6907F10C0307F1AD
:104748000E0207F1100107F11200A0477B68D3F8A9
:1047580014323B627B68D3F81832FB617B8A07EE20
:10476800903AB8EEE77A7B68D3ED8D7A77EE677A80
:1047780097ED087A67EE277AC7ED0D7A3B8A07EE40
:10478800903AB8EEE77A7B68D3ED8E7A77EE677A5F
:1047980097ED087A67EE277AC7ED0C7AFB8907EE62
:1047A800903AB8EEE77A7B68D3ED8F7A77EE677A3E
:1047B80097ED087A67EE277AC7ED0B7A7B6893F84E
:1047C800A630002B05D0D7ED0D7AF1EE677AC7ED4C
:1047D8000D7A7B6893F8A730002B05D0D7ED0C7ABB
:1047E800F1EE677AC7ED0C7A7B6893F8A830002B56
:1047F80005D0D7ED0B7AF1EE677AC7ED0B7A7B68B7
:1048080093F8A530032B2CD07B6A1B7F03F00103A0
:10481800002B0AD197ED0C7AD7ED0B7A77EE277A31
:10482800F1EE677AC7ED0D7A1CE07B6A1B7F03F017
:104838000203002B0AD197ED0D7AD7ED0B7A77EEAC
:10484800277AF1EE677AC7ED0C7A0BE097ED0D7ACF
:10485800D7ED0C7A77EE277AF1EE677AC7ED0B7A07
:1048680000E000BF7B680C3397ED0D0A1846FEF791
:1048780019F9F0EE407A7B68C3ED917A7B681C33B6
:1048880097ED0C0A1846FEF70DF9F0EE407A7B68B2
:10489800C3ED927A7B682C3397ED0B0A1846FEF726
:1048A80001F9F0EE407A7B68C3ED937A7B6893F860
:1048B800C430002B1CD0BB8907EE903AB8EEE77ADB
:1048C8007B68D3ED907A77EE677A97ED077A67EE93
:1048D800277AC7ED067A7B683C3397ED060A1846B7
:1048E800FEF7E0F8F0EE407A7B68C3ED947A04E0D6
:1048F8007B684FF00002C3F850227B6893F8A93018
:10490800002B1CD07B6A1B6A98470346FB827B6896
:1049180003F14C02FB8A07EE903AB8EEE77A7B681F
:10492800D3ED877A67EE277AB0EE670A1046FEF76E
:10493800B9F8F0EE407A7B68C3ED957A09E07B68B8
:10494800D3ED247AB6EE007A67EE877A7B68C3EDFA
:10495800957A7B68B3F8F43201339AB27B68A3F88E
:10496800F4227B68B3F8F432C3F30803002B3BD17D
:10497800002387F82B3030E097F82B20796813460E
:104988005B001344DB000B44E0331B7883F0010326
:10499800DBB2002B1BD17B6A5B6A97F82B20104691
:1049A80098470346BB8297F82B4097F82B20BB8A81
:1049B8001946786801F022F9F0EE407A7A6804F135
:1049C80094039B0013440833C3ED007A00E000BF52
:1049D80097F82B30013387F82B307B6893F8DC305D
:1049E80097F82B209A42C7D37B68D3F844227B6878
:1049F800C3F8B4227B6893ED917A7B68D3ED927A01
:104A080077EEA77A77EE277A9FED057A67EE877AB1
:104A18007B68C3EDAE7A00E000BF3C37BD4690BD71
:104A28003ACD133F90B595B002AF78607B6893F8A4
:104A38008C3287F847307B68D3F878323B647B68E0
:104A4800002283F88C227B68D3F84431002B01D1F3
:104A5800012200E002227B68A3F88E227B68D3F84B
:104A68004431002B00F099807B68D3F87432BB6323
:104A78004FF000037B637B68D3F878323B637B6835
:104A8800D3F88832FB627B6803F56D7007F1300458
:104A980007F1340207F1380107F12C03009323468C
:104AA800FEF788F8034687F83F307B68D3F844312F
:104AB8001B69002B0CD07B68D3F844311B697A68DA
:104AC800D2F84421D2691046984703461A4606E0B0
:104AD80097F83F30002B01D0002200E002227B68CB
:104AE800A3F88E2297F83F30002B56D07B68B3F896
:104AF8008E32002B28D17B6893F85C31002B23D0B1
:104B08007B68D3ED587AF5EEC07AF1EE10FA1BDD2A
:104B180097F84730002B17D097ED0C7AD7ED107A1D
:104B280077EE677AB0EE670AFEF722FDF0EE407A7C
:104B3800B0EEE77A7B68D3ED587AB4EEE77AF1EE17
:104B480010FA01DD012300E00023002B03D07B686D
:104B58008022A3F88E227B68B3F88E32002B1CD1FA
:104B68007B68012283F88C22BA6B7B68C3F87422B5
:104B78003A6B7B68C3F87822FA6A7B68C3F88822A4
:104B8800D7ED0D7A9FED997A27EE877ADFED986A4F
:104B9800C7EE267A7B68C3EDA17A7B68002283F88A
:104BA8009C227B6893F84831002B01D0022200E058
:104BB80001227B68A3F89E227B6893F84831002B7A
:104BC8005BD07B68D3F84C31002B56D07B68D3F888
:104BD8009032BB624FF000037B627B68D3F894325B
:104BE8003B627B68D3F89832FB617B6803F56F7092
:104BF80007F1200407F1240207F1280107F11C033B
:104C080000932346FDF7D6FF034687F83E307B68BE
:104C1800D3F84C311B69002B0CD07B68D3F84C318E
:104C28001B697A68D2F84C21D26910469847034626
:104C38001A4606E097F83E30002B01D0002200E02B
:104C480002227B68A3F89E2297F83E30002B14D0EE
:104C58007B68B3F89E32002B0FD17B68012283F862
:104C68009C22BA6A7B68C3F890223A6A7B68C3F8C8
:104C78009422FA697B68C3F898227B68002283F83B
:104C8800AC227B6893F85031002B01D0022200E05F
:104C980001227B68A3F8AE227B6893F85031002B81
:104CA80056D07B68D3F85431002B51D04FF0000315
:104CB800BB614FF000037B617B68D3F8A4323B6192
:104CC8007B68D3F8A832FB607B6803F5717007F145
:104CD800100407F1140207F1180107F10C030093FF
:104CE8002346FDF767FF034687F83D307B68D3F816
:104CF80054311B69002B0CD07B68D3F854311B69E5
:104D08007A68D2F85421D2691046984703461A4661
:104D180006E097F83D30002B01D0002200E0022287
:104D28007B68A3F8AE2297F83D30002B10D07B6843
:104D3800B3F8AE32002B0BD17B68012283F8AC228A
:104D48003A697B68C3F8A422FA687B68C3F8A8228A
:104D58007B6893F88C32002B13D07B6893F89C32D5
:104D6800002B0ED07B6893ED9D7A7B68D3EDA47AF7
:104D780077EE677AB0EE670AFEF7FAFBF0EE407A54
:104D880001E0DFED1C7A7B68C3EDA87A7B6893F8B5
:104D98008C32002B20D07B6893F8AC32002B1BD0D0
:104DA8007B68D3ED567AF5EEC07AF1EE10FA13DD92
:104DB8007B68D3ED9E6A7B68D3ED567A86EEA77A38
:104DC8007B68D3EDA97A77EE677AB0EE670AFEF7CB
:104DD800CFFBF0EE407A01E0DFED067A7B68C3EDA9
:104DE800AC7A00BF4C37BD4690BD00BF0000704292
:104DF800DB0FC94000000000B0B584B002AF786096
:104E08007B681B78002B6ED07B681B78012B6AD0DF
:104E18007B6803F56B707B6803F184017B6803F1A1
:104E280098047B68D3ED917A7B6893ED927A7B68DE
:104E3800D3ED936A7B6893ED956A7B6803F51675E5
:104E48007B681B787A680632019200932B46F0EE55
:104E5800461AB0EE661AF0EE470AB0EE670A224626
:104E680001F0C2F87B6893F86631002B36D07B6876
:104E780093F88C32002B31D07B6893F89C32002B4E
:104E88002CD07B68D3EDA87AB0EEE77A7B68D3EDB7
:104E98005A7AB4EEE77AF1EE10FA1FDD7B68B3F8C0
:104EA800B03301339AB27B68A3F8B0237B68B3F8B8
:104EB800B0237B68B3F86C319A422CBF01230023DE
:104EC800DBB2002B10D04FF40061786800F018FFB7
:104ED8007B684FF40072A3F89E2205E07B680022ED
:104EE800A3F8B02300E000BF0837BD46B0BD80B5C9
:104EF80084B000AF78607B6893F87131052B60D877
:104F0800022B58D2002B02D0012B4ED059E07B68DF
:104F1800D3F84431002B05D14FF48071786800F044
:104F280002FF54E07B6893F88C3283F00103DBB214
:104F3800002B29D07B68B3F8AE3301339AB27B6873
:104F4800A3F8AE237B68B3F8AE237B68B3F864316B
:104F58009A422CBF01230023DBB2002B36D07B689A
:104F6800B3F88E32022B04D07B68B3F88E32012B53
:104F780001D1082301E04FF48063FB81FB891946C6
:104F8800786800F0D0FE21E07B680022A3F8AE2309
:104F98007B68D3F874227B68C3F868227B68D3F8EF
:104FA80084227B68C3F87C2211E04FF40071786892
:104FB80000F0B9FE0BE04FF40071786800F0B3FE22
:104FC80005E08021786800F0AEFE00E000BF1037F1
:104FD800BD4680BD80B52DED028B8EB000AF7860E8
:104FE8007B68D3F8E0323B637B68D3F8DC327B63C1
:104FF8007B6893EDAD8A7B68D3ED9A7AB0EE670A49
:1050080009F014FDF0EE407A28EE278A7B68D3ED8C
:10501800AE8A7B68D3ED9A7AB0EE670A09F03EFD56
:10502800F0EE407A68EEA77A78EE277A7B68C3EDCF
:10503800AF7A7B68D3EDAD7AB1EE678A7B68D3ED42
:105048009A7AB0EE670A09F029FDF0EE407A28EE68
:10505800278A7B68D3EDAE8A7B68D3ED9A7AB0EE67
:10506800670A09F0E3FCF0EE407A68EEA77A78EE7A
:10507800277A7B68C3EDB07A7B685B78092B1FD1F0
:105088007B6893EDB57A7B68D3ED9E7A77EE677A85
:10509800B0EE670AFEF76CFA87ED0B0A7B6803F53A
:1050A80064727B68D3ED177AF0EE670A97ED0B0A06
:1050B8001046FDF79FFBF0EE407A7B68C3EDB67AA9
:1050C8007B685B78082B03D07B685B78092B1AD147
:1050D8007B6803F55D727B6893EDB67A7B68D3EDE8
:1050E8009F7A77EE677A7B6893ED177AF0EE470A36
:1050F800B0EE670A1046FDF77DFB87ED0D0A7B6869
:105108007A6BC3F8DC227B6803F54F727B68D3EDBA
:10511800AF7A97ED0C7A77EE677A7B6893ED177A1A
:10512800F0EE470AB0EE670A1046FDF763FBF0EEB3
:10513800407A7B68C3EDB17A7B6803F556727B6869
:10514800D3EDB07A97ED0D7A77EE677A7B6893EDB9
:10515800177AF0EE470AB0EE670A1046FDF74AFBE9
:10516800F0EE407A7B68C3EDB27A7B68D3ED9A7A29
:10517800B0EE670A09F05AFC87ED0A0A7B68D3ED9E
:105188009A7AB0EE670A09F089FC87ED090A7B680C
:1051980093EDB17AD7ED0A7A27EE277A7B68D3EDBB
:1051A800B26AD7ED097A66EEA77A77EE677A7B68F6
:1051B800C3EDB37A7B6893EDB17AD7ED097A27EE20
:1051C800277A7B68D3EDB26AD7ED0A7A66EEA77ABA
:1051D80077EE277A7B68C3EDB47A7B6893F811324F
:1051E800002B20D17B68D3EDB37A7B6893EDB47A3A
:1051F8007B68D3ED956A07F118031846B0EE661A76
:10520800F0EE470AB0EE670AFEF73AF9BA697B682A
:10521800C3F8E422FA697B68C3F8E8223A6A7B6833
:10522800C3F8EC2220E07B68D3EDB37A7B6893ED7A
:10523800B47A7B68D3ED956A07F10C031846B0EE93
:10524800661AF0EE470AB0EE670AFEF74BF8FA68FE
:105258007B68C3F8E4223A697B68C3F8E8227A6974
:105268007B68C3F8EC2200BF00BF3837BD46BDECF1
:10527800028B80BD90B587B000AF786000237B8239
:1052880000233B820023FB810023BB817B689B6E4C
:105298009C6907F10C0307F10E0207F1100107F1F1
:1052A8001200A0477B6893ED887A7B8A07EE903AD4
:1052B800F8EEE77A77EE277A7B68C3ED887A7B6821
:1052C80093ED897A3B8A07EE903AF8EEE77A77EE23
:1052D800277A7B68C3ED897A7B6893ED8A7AFB89A4
:1052E80007EE903AF8EEE77A77EE277A7B68C3ED17
:1052F8008A7A7B6893ED8B7ABB8907EE903AF8EE51
:10530800E77A77EE277A7B68C3ED8B7A7B68B3F808
:10531800303201339AB27B68A3F830227B68B3F845
:1053280030227B68B3F898309A426AD37B68B3F826
:10533800303207EE903AF8EE677AC7ED057A7B6867
:10534800D3ED886A97ED057AC6EE877A7B68C3ED58
:105358008D7A7B68D3ED896A97ED057AC6EE877AF0
:105368007B68C3ED8E7A7B68D3ED8A6A97ED057A00
:10537800C6EE877A7B68C3ED8F7A7B68D3ED8B6A3C
:1053880097ED057AC6EE877A7B68C3ED907A7B68DD
:105398000C339FED1E0A1846FDF7E7FB7B681C33AC
:1053A8009FED1A0A1846FDF7E0FB7B682C339FED4A
:1053B800170A1846FDF7D9FB7B683C339FED130AA3
:1053C8001846FDF7D2FB7B684FF00002C3F8442271
:1053D8007B684FF00002C3F848227B684FF0000258
:1053E800C3F84C227B684FF00002C3F850227B6858
:1053F8004FF00002C3F8B4227B684FF00002C3F8F4
:10540800B82200BF1C37BD4690BD00BF0000000099
:1054180080B483B000AF78607B68D3F80C237B68D6
:10542800C3F8E4227B68D3F810237B68C3F8E8222A
:105438007B68D3F814237B68C3F8EC2200BF0C37D1
:10544800BD465DF8047B704780B592B000AF7860C8
:105458007B68D3F8D832FB607B68D3F80833BB602D
:105468007B685B78042B10D17B681B79012B0CD1EE
:1054780007F1080207F10C0319467868FEF7FEFCED
:105488000346002B01D0012300E0002387F82F30CA
:10549800FA687B68C3F8D822BA687B68C3F808231F
:1054A80097F82F30002B02D04FF0000302E07B6802
:1054B800D3F80433BB627B6803F57373D7ED037AC3
:1054C800D7ED0A0AB0EE670A1846FDF743FC7B6879
:1054D80003F573727B68D3ED177AB0EE670A10464E
:1054E800FDF770FC7B6803F573731846FDF70CFD38
:1054F80087ED090A7B6803F573731846FDF713FDFA
:1055080087ED080AD7ED027AF5EEC07AF1EE10FAC7
:1055180002D54FF00003BB60D7ED027AB7EE007AF0
:10552800F4EEC77AF1EE10FA02DD4FF07E53BB605D
:1055380097ED090A09F07AFA87ED070A97ED090A43
:1055480009F0ACFA87ED060A7B68D3F854327B641D
:10555800D7ED117A9FED6F7AF4EEC77AF1EE10FA73
:1055680001D56D4B7B647B687A6AC3F86C227B68D3
:10557800D3F86C227B68C3F868227B683A6AC3F860
:105588007C2297ED027AD7ED117A27EE277AD7EDAC
:10559800077A67EE277A7B68C3EDB37A97ED027ACC
:1055A800D7ED117A27EE277AD7ED067A67EE277AB4
:1055B8007B68C3EDB47A594B7B61D7ED027A97EDDE
:1055C800077A67EE277AC7ED107AD7ED077ABEEE2D
:1055D800007A27EE877AD7ED067ADFED516A67EE13
:1055E800A67A37EE277AD7ED027A67EE277AC7EDE3
:1055F8000F7AD7ED077ABEEE007A27EE877AD7EDD5
:10560800067ADFED476A67EEA67A37EE677AD7ED56
:10561800027A67EE277AC7ED0E7A7B6893F8113223
:10562800012B56D13B6C7B6397ED0F7AD7ED0D7A42
:10563800B4EEE77AF1EE10FA01DDFB6B7B6397EDD0
:105648000E7AD7ED0D7AB4EEE77AF1EE10FA01DDB5
:10565800BB6B7B633B6C3B6397ED0F7AD7ED0C7AA2
:10566800B4EEE77AF1EE10FA01D5FB6B3B6397EDE8
:105678000E7AD7ED0C7AB4EEE77AF1EE10FA01D58E
:10568800BB6B3B6397ED0D7AD7ED0C7A77EE277AF3
:10569800F1EE677AB6EE007A67EE877AC7ED047A9C
:1056A80097ED107AD7ED047A77EE277AC7ED107A5E
:1056B80097ED0F7AD7ED047A77EE277AC7ED0F7A50
:1056C80097ED0E7AD7ED047A77EE277AC7ED0E7A42
:1056D80000E000BFD7ED107AB6EE007A77EE877A51
:1056E8007B68C3EDB97AD7ED0F7AB6EE007A77EE1C
:1056F800877A7B68C3EDBA7AD7ED0E7AB6EE007A70
:1057080077EE877A7B68C3EDBB7A00BF4837BD4622
:1057180080BD00BFCDCCCC3DCDCCCC3DD7B35D3F1B
:10572800D7B35D3F80B58AB000AF78607B684FF033
:105738000002C3F86C227B68D3F86C227B68C3F83C
:1057480068227B68D3F8E0327B627B68D3F8DC326E
:105758003B627B681B79022B1CD1D7ED097AF0EEEE
:10576800E77A9FED617AF4EEC77AF1EE10FA11D577
:10577800D7ED087AF0EEE77A9FED5B7AF4EEC77A18
:10578800F1EE10FA06D57B68D3F874317B624FF0DE
:1057980000033B627B6893EDAD7A7B68D3EDAE7A0C
:1057A800DFED526A67EEA67A77EE277A7B68C3ED5B
:1057B800AF7A7B68D3EDAD7AF1EE677A9FED4B7ADD
:1057C80027EE877A7B68D3EDAE7A77EE277A7B6807
:1057D800C3EDB07A7B6803F54F727B68D3EDAF7A7F
:1057E80097ED097A77EE677A7B6893ED177AF0EE92
:1057F800470AB0EE670A1046FCF7FCFFF0EE407A65
:105808007B68C3EDB17A7B6803F556727B68D3ED8C
:10581800B07A97ED087A77EE677A7B6893ED177A16
:10582800F0EE470AB0EE670A1046FCF7E3FFF0EE29
:10583800407A7B68C3EDB27A7B68D3F8C4227B6870
:10584800C3F8CC227B68D3F8C8227B68C3F8D0227F
:105858007B6893F81132002B20D17B68D3EDB37AA3
:105868007B6893EDB47A7B68D3ED956A07F11403EE
:105878001846B0EE661AF0EE470AB0EE670AFDF772
:10588800FFFD7A697B68C3F8E422BA697B68C3F8CC
:10589800E822FA697B68C3F8EC2220E07B68D3ED44
:1058A800B37A7B6893EDB47A7B68D3ED956A07F198
:1058B80008031846B0EE661AF0EE470AB0EE670A1B
:1058C800FDF710FDBA687B68C3F8E422FA687B68C4
:1058D800C3F8E8223A697B68C3F8EC2200BF00BF2E
:1058E8002837BD4680BD00BFBD37863500000000A3
:1058F80080B594B000AF78607B68D3F8D832FB628B
:105908007B68D3F8E032BB627B68D3F8DC327B6219
:105918007B685B78032B11D17B681B79012B0DD138
:1059280007F1240307F1280207F12C017868FEF734
:10593800A0FB0346002B01D0012300E0002387F8D9
:105948004730FA6A7B68C3F8D822BA6A7B68C3F81A
:10595800E0227A6A7B68C3F8DC2297F84730002B8C
:1059680002D04FF0000302E07B68D3F80433FB64F5
:1059780097F8473083F00103DBB2002B16D07B6821
:105988001B79032B12D17B68D3ED607AF5EEC07AD0
:10599800F1EE10FA0ADDD7ED0B7AF0EEE76A7B68D4
:1059A80093ED607AC6EE877AC7ED137A7B6803F5C4
:1059B8007373D7ED0B7AD7ED130AB0EE670A184662
:1059C800FDF7C8F97B6803F573727B68D3ED177A26
:1059D800B0EE670A1046FDF7F5F97B6803F57373B7
:1059E8001846FDF791FA87ED100A7B6803F5737383
:1059F8001846FDF798FA87ED0F0A7B683A6CC3F8EA
:105A08006C227B68D3F86C227B68C3F868227B68B9
:105A1800FA6BC3F87C227B68D3F8E032BB637B68FF
:105A2800D3F8DC32BB6497F8473083F00103DBB26C
:105A3800002B0BD0D7ED127AF5EEC07AF1EE10FA02
:105A480004D87868FEF7D0F987ED120A97ED100AA6
:105A580008F0ECFF87ED0D0A97ED100A09F01EF823
:105A680087ED0C0A7B6893EDAD7AD7ED0D7A27EEBA
:105A7800277A7B68D3EDAE6AD7ED0C7A66EEA77A03
:105A880077EE277A7B68C3EDAF7A7B68D3EDAD7A82
:105A9800B1EE677AD7ED0C7A27EE277A7B68D3EDDB
:105AA800AE6AD7ED0D7A66EEA77A77EE277A7B682D
:105AB800C3EDB07A7B6803F54F727B68D3EDAF7A9C
:105AC80097ED0E7A77EE677A7B6893ED177AF0EEAA
